:020000000C945E
:1000020047000C9400000C9400000C9400000C9427
:1000120000000C9400000C9400000C9400000C945E
:1000220000000C9400000C9400000C9400000C944E
:1000320000000C9400000C9400000C9400000C943E
:1000420000000C9400000C9400000C9400000C942E
:100052000000646179202D3E20006E69676874207B
:100062002D3E200080C001002D4E414E00494E46DB
:1000720000000800600154000A0068015C000200F0
:10008200720166000100760168000000F894EE2714
:10009200ECBBF1E0FBBFEBBFE5BF8DE0A2E0BB270D
:1000A200ED938A95E9F780E094E0A0E6ED9301975D
:1000B200E9F7E4E7F0E085919591009761F0A59169
:1000C200B59105901590BF01F00105900D92019731
:1000D200E1F7FB01F0CFEFE5EDBFE4E0EEBFC0E6F4
:1000E200D1E00C948200AA93E881E064E7B98BE145
:1000F2008A95F1F7369A349BFECF349AE4B1F5B182
:10010200E4C06B9700E010E0E0E0EABBEBBBE7BBCA
:10011200E8BBE2E0E4BBE0E0E5BBE1BBE2BBE3BF9E
:10012200E2BFECBFEFBDEEBDEDBDECBDE7BDE6BD90
:10013200EBBDEABDE9BDE8BDE2BDE5BDE4BDE3BDA1
:10014200E9BFE5BFE4BFEAB9E0E8E8B9E0E4E7B94E
:10015200E3E8E6B9E0E0E0BFEDB9E6BFA0E189D0AF
:10016200A1E0C1DF8F010135E0E01E0734F0A99A5A
:100172000E94B401A0E6B1E005C0A9980E94B401B2
:10018200A8E6B1E00E94A7011A930A93DE01129633
:100192000E9468010E94B401DE0112960E9496013B
:1001A200DE011A9655D0A8EEB3E00E94C7012FD007
:1001B200D7CFFFCFAA93E2B3EF70AE2FE881E07FF3
:1001C200EA2BE2BB8DE08A95F1F7929A8DE08A954F
:1001D200F1F792988DE08A95F1F777C0AA93A881FA
:1001E200E9DFE881E295E883A881E4DF85E88A9582
:1001F200F1F76BC0AA93E881F0E0EE58FE4FE08180
:10020200A981AE0FEBDF5980488022960895A2E0C3
:100212000E94B901ACE0E2DFA1E00E94B901E0E096
:100222004E2E5E2E0895AA93A881AA3011F057147B
:1002320048F0E0E0EA934394A42DDCDFA881AA30E1
:1002420009F443C05394909AA881C8DF90983DC0A6
:10025200BA93AA931A93A981BA81ED91A983BA8319
:100262001E2FE03019F0A12FDEDFF5CF1881239683
:100272000895AA93E1B3E06FE1BB8A9A889A899ABA
:100282009298909891987880E881E058E093740170
:10029200E881E054E0937501A4E1B0E00E94C70157
:1002A2000E94BF010E94BF010E94BF01A0E282DF43
:1002B20088EC90E00197F1F7A8E290DFA4E08EDFEE
:1002C200A5E88CDFA6E08ADFA2DF21960895BA9323
:1002D200AA93A991B991E991F99130962AF4E095FE
:1002E200F09531966DE26D93E89480E197E20DD03E
:1002F20088EE93E00AD084E6992707D08AE005D0F9
:100302006E2F10D066276C9308956627E817F907B9
:1003120020F06395E81BF90BC9F7662311F416F078
:1003220008956894605D6D930895BA93AA93E991D4
:10033200F991A991B991CD016D916623E9F71197D0
:1003420061916D936623E1F7FC010895BA93AA9334
:10035200E991F991A991B991CD0161916D936623CA
:10036200E1F7FC010895FE013A96FA93EA930895A3
:100372000E94EF00A3E0B0E00C94C701A0E30E944A
:10038200DB0088EC90E00197F1F70895109639F0C0
:1003920080ED97E00197F1F7A8951197C9F70895B5
:00000001FF
